{
  "contractName": "Voting",
  "abi": [
    {
      "anonymous": false,
      "inputs": [
        {
          "indexed": true,
          "internalType": "address",
          "name": "previousOwner",
          "type": "address"
        },
        {
          "indexed": true,
          "internalType": "address",
          "name": "newOwner",
          "type": "address"
        }
      ],
      "name": "OwnershipTransferred",
      "type": "event"
    },
    {
      "anonymous": false,
      "inputs": [
        {
          "indexed": false,
          "internalType": "uint256",
          "name": "proposalId",
          "type": "uint256"
        }
      ],
      "name": "ProposalRegistered",
      "type": "event"
    },
    {
      "anonymous": false,
      "inputs": [
        {
          "indexed": false,
          "internalType": "address",
          "name": "voter",
          "type": "address"
        },
        {
          "indexed": false,
          "internalType": "uint256",
          "name": "proposalId",
          "type": "uint256"
        }
      ],
      "name": "Voted",
      "type": "event"
    },
    {
      "anonymous": false,
      "inputs": [
        {
          "indexed": false,
          "internalType": "address",
          "name": "voterAddress",
          "type": "address"
        }
      ],
      "name": "VoterRegistered",
      "type": "event"
    },
    {
      "anonymous": false,
      "inputs": [
        {
          "indexed": false,
          "internalType": "uint256",
          "name": "proposalId",
          "type": "uint256"
        }
      ],
      "name": "WinnerIs",
      "type": "event"
    },
    {
      "anonymous": false,
      "inputs": [
        {
          "indexed": false,
          "internalType": "enum Voting.WorkflowStatus",
          "name": "previousStatus",
          "type": "uint8"
        },
        {
          "indexed": false,
          "internalType": "enum Voting.WorkflowStatus",
          "name": "newStatus",
          "type": "uint8"
        }
      ],
      "name": "WorkflowStatusChange",
      "type": "event"
    },
    {
      "inputs": [],
      "name": "owner",
      "outputs": [
        {
          "internalType": "address",
          "name": "",
          "type": "address"
        }
      ],
      "stateMutability": "view",
      "type": "function",
      "constant": true
    },
    {
      "inputs": [],
      "name": "renounceOwnership",
      "outputs": [],
      "stateMutability": "nonpayable",
      "type": "function"
    },
    {
      "inputs": [
        {
          "internalType": "address",
          "name": "newOwner",
          "type": "address"
        }
      ],
      "name": "transferOwnership",
      "outputs": [],
      "stateMutability": "nonpayable",
      "type": "function"
    },
    {
      "inputs": [],
      "name": "winningProposalID",
      "outputs": [
        {
          "internalType": "uint256",
          "name": "",
          "type": "uint256"
        }
      ],
      "stateMutability": "view",
      "type": "function",
      "constant": true
    },
    {
      "inputs": [],
      "name": "workflowStatus",
      "outputs": [
        {
          "internalType": "enum Voting.WorkflowStatus",
          "name": "",
          "type": "uint8"
        }
      ],
      "stateMutability": "view",
      "type": "function",
      "constant": true
    },
    {
      "inputs": [
        {
          "internalType": "address",
          "name": "_addr",
          "type": "address"
        }
      ],
      "name": "getVoter",
      "outputs": [
        {
          "components": [
            {
              "internalType": "bool",
              "name": "isRegistered",
              "type": "bool"
            },
            {
              "internalType": "bool",
              "name": "hasVoted",
              "type": "bool"
            },
            {
              "internalType": "uint256",
              "name": "votedProposalId",
              "type": "uint256"
            }
          ],
          "internalType": "struct Voting.Voter",
          "name": "",
          "type": "tuple"
        }
      ],
      "stateMutability": "view",
      "type": "function",
      "constant": true
    },
    {
      "inputs": [
        {
          "internalType": "uint256",
          "name": "_id",
          "type": "uint256"
        }
      ],
      "name": "getOneProposal",
      "outputs": [
        {
          "components": [
            {
              "internalType": "string",
              "name": "description",
              "type": "string"
            },
            {
              "internalType": "uint256",
              "name": "voteCount",
              "type": "uint256"
            }
          ],
          "internalType": "struct Voting.Proposal",
          "name": "",
          "type": "tuple"
        }
      ],
      "stateMutability": "view",
      "type": "function",
      "constant": true
    },
    {
      "inputs": [
        {
          "internalType": "address",
          "name": "_addr",
          "type": "address"
        }
      ],
      "name": "addVoter",
      "outputs": [],
      "stateMutability": "nonpayable",
      "type": "function"
    },
    {
      "inputs": [
        {
          "internalType": "string",
          "name": "_desc",
          "type": "string"
        }
      ],
      "name": "addProposal",
      "outputs": [],
      "stateMutability": "nonpayable",
      "type": "function"
    },
    {
      "inputs": [
        {
          "internalType": "uint256",
          "name": "_id",
          "type": "uint256"
        }
      ],
      "name": "setVote",
      "outputs": [],
      "stateMutability": "nonpayable",
      "type": "function"
    },
    {
      "inputs": [],
      "name": "startProposalsRegistering",
      "outputs": [],
      "stateMutability": "nonpayable",
      "type": "function"
    },
    {
      "inputs": [],
      "name": "endProposalsRegistering",
      "outputs": [],
      "stateMutability": "nonpayable",
      "type": "function"
    },
    {
      "inputs": [],
      "name": "startVotingSession",
      "outputs": [],
      "stateMutability": "nonpayable",
      "type": "function"
    },
    {
      "inputs": [],
      "name": "endVotingSession",
      "outputs": [],
      "stateMutability": "nonpayable",
      "type": "function"
    },
    {
      "inputs": [],
      "name": "tallyVotes",
      "outputs": [],
      "stateMutability": "nonpayable",
      "type": "function"
    }
  ],
  "bytecode": "0x608060405234801561001057600080fd5b5061002d61002261003260201b60201c565b61003a60201b60201c565b6100fe565b600033905090565b60008060009054906101000a900473ffffffffffffffffffffffffffffffffffffffff169050816000806101000a81548173ffffffffffffffffffffffffffffffffffffffff021916908373ffffffffffffffffffffffffffffffffffffffff1602179055508173ffffffffffffffffffffffffffffffffffffffff168173ffffffffffffffffffffffffffffffffffffffff167f8be0079c531659141344cd1fd0a4f28419497f9722a3daafe3b4186f6b6457e060405160405180910390a35050565b61245d806200010e6000396000f3fe608060405234801561001057600080fd5b50600436106100f55760003560e01c8063a7bfab1611610097578063d4f50f9811610066578063d4f50f98146101ee578063ee74c6781461021e578063f2fde38b14610228578063f4ab9adf14610244576100f5565b8063a7bfab16146101b2578063bdc01431146101bc578063c7038a4e146101da578063c88af42f146101e4576100f5565b8063715018a6116100d3578063715018a61461013c5780638da5cb5b14610146578063a1edffa214610164578063a2788cce14610182576100f5565b8063230796ae146100fa5780632fdae3c514610116578063378a217814610132575b600080fd5b610114600480360381019061010f91906113b8565b610260565b005b610130600480360381019061012b919061152b565b61055b565b005b61013a610797565b005b61014461093d565b005b61014e610951565b60405161015b91906115b5565b60405180910390f35b61016c61097a565b6040516101799190611647565b60405180910390f35b61019c600480360381019061019791906113b8565b61098d565b6040516101a99190611736565b60405180910390f35b6101ba610af4565b005b6101c4610bda565b6040516101d19190611767565b60405180910390f35b6101e2610be0565b005b6101ec610cc6565b005b610208600480360381019061020391906117ae565b610dab565b6040516102159190611838565b60405180910390f35b610226610ed3565b005b610242600480360381019061023d91906117ae565b610fb9565b005b61025e600480360381019061025991906117ae565b61103c565b005b600460003373ffffffffffffffffffffffffffffffffffffffff1673ffffffffffffffffffffffffffffffffffffffff16815260200190815260200160002060000160009054906101000a900460ff166102ef576040517f08c379a00000000000000000000000000000000000000000000000000000000081526004016102e6906118b0565b60405180910390fd5b60036005811115610303576103026115d0565b5b600260009054906101000a900460ff166005811115610325576103246115d0565b5b14610365576040517f08c379a000000000000000000000000000000000000000000000000000000000815260040161035c90611942565b60405180910390fd5b60011515600460003373ffffffffffffffffffffffffffffffffffffffff1673ffffffffffffffffffffffffffffffffffffffff16815260200190815260200160002060000160019054906101000a900460ff161515036103fb576040517f08c379a00000000000000000000000000000000000000000000000000000000081526004016103f2906119ae565b60405180910390fd5b6003805490508110610442576040517f08c379a000000000000000000000000000000000000000000000000000000000815260040161043990611a1a565b60405180910390fd5b80600460003373ffffffffffffffffffffffffffffffffffffffff1673ffffffffffffffffffffffffffffffffffffffff168152602001908152602001600020600101819055506001600460003373ffffffffffffffffffffffffffffffffffffffff1673ffffffffffffffffffffffffffffffffffffffff16815260200190815260200160002060000160016101000a81548160ff021916908315150217905550600381815481106104f8576104f7611a3a565b5b9060005260206000209060020201600101600081548092919061051a90611a98565b91905055507f4d99b957a2bc29a30ebd96a7be8e68fe50a3c701db28a91436490b7d53870ca43382604051610550929190611ae0565b60405180910390a150565b600460003373ffffffffffffffffffffffffffffffffffffffff1673ffffffffffffffffffffffffffffffffffffffff16815260200190815260200160002060000160009054906101000a900460ff166105ea576040517f08c379a00000000000000000000000000000000000000000000000000000000081526004016105e1906118b0565b60405180910390fd5b600160058111156105fe576105fd6115d0565b5b600260009054906101000a900460ff1660058111156106205761061f6115d0565b5b14610660576040517f08c379a000000000000000000000000000000000000000000000000000000000815260040161065790611b55565b60405180910390fd5b60405160200161066f90611b9b565b60405160208183030381529060405280519060200120816040516020016106969190611bf4565b60405160208183030381529060405280519060200120036106ec576040517f08c379a00000000000000000000000000000000000000000000000000000000081526004016106e390611c88565b60405180910390fd5b6106f461132f565b8181600001819052506003819080600181540180825580915050600190039060005260206000209060020201600090919091909150600082015181600001908161073e9190611eb4565b506020820151816001015550507f92e393e9b54e2f801d3ea4beb0c5e71a21cc34a5d34b77d0fb8a3aa1650dc18f600160038054905061077e9190611f86565b60405161078b9190611767565b60405180910390a15050565b61079f6111e5565b600460058111156107b3576107b26115d0565b5b600260009054906101000a900460ff1660058111156107d5576107d46115d0565b5b14610815576040517f08c379a000000000000000000000000000000000000000000000000000000000815260040161080c9061202c565b60405180910390fd5b600080600090505b600380549050811015610893576003828154811061083e5761083d611a3a565b5b9060005260206000209060020201600101546003828154811061086457610863611a3a565b5b9060005260206000209060020201600101541115610880578091505b808061088b90611a98565b91505061081d565b50806001819055507fc20dcf6c02983a6304ed7cded74cfd45b125aa4e92a26707e2bcb4c6a63ee1816001546040516108cc9190611767565b60405180910390a16005600260006101000a81548160ff021916908360058111156108fa576108f96115d0565b5b02179055507f0a97a4ee45751e2abf3e4fc8946939630b11b371ea8ae39ccdc3056e98f5cc3f6004600560405161093292919061204c565b60405180910390a150565b6109456111e5565b61094f6000611263565b565b60008060009054906101000a900473ffffffffffffffffffffffffffffffffffffffff16905090565b600260009054906101000a900460ff1681565b61099561132f565b600460003373ffffffffffffffffffffffffffffffffffffffff1673ffffffffffffffffffffffffffffffffffffffff16815260200190815260200160002060000160009054906101000a900460ff16610a24576040517f08c379a0000000000000000000000000000000000000000000000000000000008152600401610a1b906118b0565b60405180910390fd5b60038281548110610a3857610a37611a3a565b5b9060005260206000209060020201604051806040016040529081600082018054610a6190611cd7565b80601f0160208091040260200160405190810160405280929190818152602001828054610a8d90611cd7565b8015610ada5780601f10610aaf57610100808354040283529160200191610ada565b820191906000526020600020905b815481529060010190602001808311610abd57829003601f168201915b505050505081526020016001820154815250509050919050565b610afc6111e5565b60036005811115610b1057610b0f6115d0565b5b600260009054906101000a900460ff166005811115610b3257610b316115d0565b5b14610b72576040517f08c379a0000000000000000000000000000000000000000000000000000000008152600401610b6990611942565b60405180910390fd5b6004600260006101000a81548160ff02191690836005811115610b9857610b976115d0565b5b02179055507f0a97a4ee45751e2abf3e4fc8946939630b11b371ea8ae39ccdc3056e98f5cc3f60036004604051610bd092919061204c565b60405180910390a1565b60015481565b610be86111e5565b60006005811115610bfc57610bfb6115d0565b5b600260009054906101000a900460ff166005811115610c1e57610c1d6115d0565b5b14610c5e576040517f08c379a0000000000000000000000000000000000000000000000000000000008152600401610c55906120e7565b60405180910390fd5b6001600260006101000a81548160ff02191690836005811115610c8457610c836115d0565b5b02179055507f0a97a4ee45751e2abf3e4fc8946939630b11b371ea8ae39ccdc3056e98f5cc3f60006001604051610cbc92919061204c565b60405180910390a1565b610cce6111e5565b60016005811115610ce257610ce16115d0565b5b600260009054906101000a900460ff166005811115610d0457610d036115d0565b5b14610d44576040517f08c379a0000000000000000000000000000000000000000000000000000000008152600401610d3b90612179565b60405180910390fd5b60028060006101000a81548160ff02191690836005811115610d6957610d686115d0565b5b02179055507f0a97a4ee45751e2abf3e4fc8946939630b11b371ea8ae39ccdc3056e98f5cc3f60016002604051610da192919061204c565b60405180910390a1565b610db3611349565b600460003373ffffffffffffffffffffffffffffffffffffffff1673ffffffffffffffffffffffffffffffffffffffff16815260200190815260200160002060000160009054906101000a900460ff16610e42576040517f08c379a0000000000000000000000000000000000000000000000000000000008152600401610e39906118b0565b60405180910390fd5b600460008373ffffffffffffffffffffffffffffffffffffffff1673ffffffffffffffffffffffffffffffffffffffff1681526020019081526020016000206040518060600160405290816000820160009054906101000a900460ff161515151581526020016000820160019054906101000a900460ff161515151581526020016001820154815250509050919050565b610edb6111e5565b60026005811115610eef57610eee6115d0565b5b600260009054906101000a900460ff166005811115610f1157610f106115d0565b5b14610f51576040517f08c379a0000000000000000000000000000000000000000000000000000000008152600401610f489061220b565b60405180910390fd5b6003600260006101000a81548160ff02191690836005811115610f7757610f766115d0565b5b02179055507f0a97a4ee45751e2abf3e4fc8946939630b11b371ea8ae39ccdc3056e98f5cc3f60026003604051610faf92919061204c565b60405180910390a1565b610fc16111e5565b600073ffffffffffffffffffffffffffffffffffffffff168173ffffffffffffffffffffffffffffffffffffffff1603611030576040517f08c379a00000000000000000000000000000000000000000000000000000000081526004016110279061229d565b60405180910390fd5b61103981611263565b50565b6110446111e5565b60006005811115611058576110576115d0565b5b600260009054906101000a900460ff16600581111561107a576110796115d0565b5b146110ba576040517f08c379a00000000000000000000000000000000000000000000000000000000081526004016110b19061232f565b60405180910390fd5b60011515600460008373ffffffffffffffffffffffffffffffffffffffff1673ffffffffffffffffffffffffffffffffffffffff16815260200190815260200160002060000160009054906101000a900460ff16151503611150576040517f08c379a00000000000000000000000000000000000000000000000000000000081526004016111479061239b565b60405180910390fd5b6001600460008373ffffffffffffffffffffffffffffffffffffffff1673ffffffffffffffffffffffffffffffffffffffff16815260200190815260200160002060000160006101000a81548160ff0219169083151502179055507fb6be2187d059cc2a55fe29e0e503b566e1e0f8c8780096e185429350acffd3dd816040516111da91906115b5565b60405180910390a150565b6111ed611327565b73ffffffffffffffffffffffffffffffffffffffff1661120b610951565b73ffffffffffffffffffffffffffffffffffffffff1614611261576040517f08c379a000000000000000000000000000000000000000000000000000000000815260040161125890612407565b60405180910390fd5b565b60008060009054906101000a900473ffffffffffffffffffffffffffffffffffffffff169050816000806101000a81548173ffffffffffffffffffffffffffffffffffffffff021916908373ffffffffffffffffffffffffffffffffffffffff1602179055508173ffffffffffffffffffffffffffffffffffffffff168173ffffffffffffffffffffffffffffffffffffffff167f8be0079c531659141344cd1fd0a4f28419497f9722a3daafe3b4186f6b6457e060405160405180910390a35050565b600033905090565b604051806040016040528060608152602001600081525090565b6040518060600160405280600015158152602001600015158152602001600081525090565b6000604051905090565b600080fd5b600080fd5b6000819050919050565b61139581611382565b81146113a057600080fd5b50565b6000813590506113b28161138c565b92915050565b6000602082840312156113ce576113cd611378565b5b60006113dc848285016113a3565b91505092915050565b600080fd5b600080fd5b6000601f19601f8301169050919050565b7f4e487b7100000000000000000000000000000000000000000000000000000000600052604160045260246000fd5b611438826113ef565b810181811067ffffffffffffffff8211171561145757611456611400565b5b80604052505050565b600061146a61136e565b9050611476828261142f565b919050565b600067ffffffffffffffff82111561149657611495611400565b5b61149f826113ef565b9050602081019050919050565b82818337600083830152505050565b60006114ce6114c98461147b565b611460565b9050828152602081018484840111156114ea576114e96113ea565b5b6114f58482856114ac565b509392505050565b600082601f830112611512576115116113e5565b5b81356115228482602086016114bb565b91505092915050565b60006020828403121561154157611540611378565b5b600082013567ffffffffffffffff81111561155f5761155e61137d565b5b61156b848285016114fd565b91505092915050565b600073ffffffffffffffffffffffffffffffffffffffff82169050919050565b600061159f82611574565b9050919050565b6115af81611594565b82525050565b60006020820190506115ca60008301846115a6565b92915050565b7f4e487b7100000000000000000000000000000000000000000000000000000000600052602160045260246000fd5b600681106116105761160f6115d0565b5b50565b6000819050611621826115ff565b919050565b600061163182611613565b9050919050565b61164181611626565b82525050565b600060208201905061165c6000830184611638565b92915050565b600081519050919050565b600082825260208201905092915050565b60005b8381101561169c578082015181840152602081019050611681565b838111156116ab576000848401525b50505050565b60006116bc82611662565b6116c6818561166d565b93506116d681856020860161167e565b6116df816113ef565b840191505092915050565b6116f381611382565b82525050565b6000604083016000830151848203600086015261171682826116b1565b915050602083015161172b60208601826116ea565b508091505092915050565b6000602082019050818103600083015261175081846116f9565b905092915050565b61176181611382565b82525050565b600060208201905061177c6000830184611758565b92915050565b61178b81611594565b811461179657600080fd5b50565b6000813590506117a881611782565b92915050565b6000602082840312156117c4576117c3611378565b5b60006117d284828501611799565b91505092915050565b60008115159050919050565b6117f0816117db565b82525050565b60608201600082015161180c60008501826117e7565b50602082015161181f60208501826117e7565b50604082015161183260408501826116ea565b50505050565b600060608201905061184d60008301846117f6565b92915050565b600082825260208201905092915050565b7f596f75277265206e6f74206120766f7465720000000000000000000000000000600082015250565b600061189a601283611853565b91506118a582611864565b602082019050919050565b600060208201905081810360008301526118c98161188d565b9050919050565b7f566f74696e672073657373696f6e20686176656e74207374617274656420796560008201527f7400000000000000000000000000000000000000000000000000000000000000602082015250565b600061192c602183611853565b9150611937826118d0565b604082019050919050565b6000602082019050818103600083015261195b8161191f565b9050919050565b7f596f75206861766520616c726561647920766f74656400000000000000000000600082015250565b6000611998601683611853565b91506119a382611962565b602082019050919050565b600060208201905081810360008301526119c78161198b565b9050919050565b7f50726f706f73616c206e6f7420666f756e640000000000000000000000000000600082015250565b6000611a04601283611853565b9150611a0f826119ce565b602082019050919050565b60006020820190508181036000830152611a33816119f7565b9050919050565b7f4e487b7100000000000000000000000000000000000000000000000000000000600052603260045260246000fd5b7f4e487b7100000000000000000000000000000000000000000000000000000000600052601160045260246000fd5b6000611aa382611382565b91507fffffffffffffffffffffffffffffffffffffffffffffffffffffffffffffffff8203611ad557611ad4611a69565b5b600182019050919050565b6000604082019050611af560008301856115a6565b611b026020830184611758565b9392505050565b7f50726f706f73616c7320617265206e6f7420616c6c6f77656420796574000000600082015250565b6000611b3f601d83611853565b9150611b4a82611b09565b602082019050919050565b60006020820190508181036000830152611b6e81611b32565b9050919050565b50565b6000611b85600083611853565b9150611b9082611b75565b600082019050919050565b60006020820190508181036000830152611bb481611b78565b9050919050565b6000611bc682611662565b611bd08185611853565b9350611be081856020860161167e565b611be9816113ef565b840191505092915050565b60006020820190508181036000830152611c0e8184611bbb565b905092915050565b7f566f7573206e6520706f7576657a20706173206e65207269656e2070726f706f60008201527f7365720000000000000000000000000000000000000000000000000000000000602082015250565b6000611c72602383611853565b9150611c7d82611c16565b604082019050919050565b60006020820190508181036000830152611ca181611c65565b9050919050565b7f4e487b7100000000000000000000000000000000000000000000000000000000600052602260045260246000fd5b60006002820490506001821680611cef57607f821691505b602082108103611d0257611d01611ca8565b5b50919050565b60008190508160005260206000209050919050565b60006020601f8301049050919050565b600082821b905092915050565b600060088302611d6a7fffffffffffffffffffffffffffffffffffffffffffffffffffffffffffffffff82611d2d565b611d748683611d2d565b95508019841693508086168417925050509392505050565b6000819050919050565b6000611db1611dac611da784611382565b611d8c565b611382565b9050919050565b6000819050919050565b611dcb83611d96565b611ddf611dd782611db8565b848454611d3a565b825550505050565b600090565b611df4611de7565b611dff818484611dc2565b505050565b5b81811015611e2357611e18600082611dec565b600181019050611e05565b5050565b601f821115611e6857611e3981611d08565b611e4284611d1d565b81016020851015611e51578190505b611e65611e5d85611d1d565b830182611e04565b50505b505050565b600082821c905092915050565b6000611e8b60001984600802611e6d565b1980831691505092915050565b6000611ea48383611e7a565b9150826002028217905092915050565b611ebd82611662565b67ffffffffffffffff811115611ed657611ed5611400565b5b611ee08254611cd7565b611eeb828285611e27565b600060209050601f831160018114611f1e5760008415611f0c578287015190505b611f168582611e98565b865550611f7e565b601f198416611f2c86611d08565b60005b82811015611f5457848901518255600182019150602085019450602081019050611f2f565b86831015611f715784890151611f6d601f891682611e7a565b8355505b6001600288020188555050505b505050505050565b6000611f9182611382565b9150611f9c83611382565b925082821015611faf57611fae611a69565b5b828203905092915050565b7f43757272656e7420737461747573206973206e6f7420766f74696e672073657360008201527f73696f6e20656e64656400000000000000000000000000000000000000000000602082015250565b6000612016602a83611853565b915061202182611fba565b604082019050919050565b6000602082019050818103600083015261204581612009565b9050919050565b60006040820190506120616000830185611638565b61206e6020830184611638565b9392505050565b7f5265676973746572696e672070726f706f73616c732063616e7420626520737460008201527f6172746564206e6f770000000000000000000000000000000000000000000000602082015250565b60006120d1602983611853565b91506120dc82612075565b604082019050919050565b60006020820190508181036000830152612100816120c4565b9050919050565b7f5265676973746572696e672070726f706f73616c7320686176656e742073746160008201527f7274656420796574000000000000000000000000000000000000000000000000602082015250565b6000612163602883611853565b915061216e82612107565b604082019050919050565b6000602082019050818103600083015261219281612156565b9050919050565b7f5265676973746572696e672070726f706f73616c73207068617365206973206e60008201527f6f742066696e6973686564000000000000000000000000000000000000000000602082015250565b60006121f5602b83611853565b915061220082612199565b604082019050919050565b60006020820190508181036000830152612224816121e8565b9050919050565b7f4f776e61626c653a206e6577206f776e657220697320746865207a65726f206160008201527f6464726573730000000000000000000000000000000000000000000000000000602082015250565b6000612287602683611853565b91506122928261222b565b604082019050919050565b600060208201905081810360008301526122b68161227a565b9050919050565b7f566f7465727320726567697374726174696f6e206973206e6f74206f70656e2060008201527f7965740000000000000000000000000000000000000000000000000000000000602082015250565b6000612319602383611853565b9150612324826122bd565b604082019050919050565b600060208201905081810360008301526123488161230c565b9050919050565b7f416c726561647920726567697374657265640000000000000000000000000000600082015250565b6000612385601283611853565b91506123908261234f565b602082019050919050565b600060208201905081810360008301526123b481612378565b9050919050565b7f4f776e61626c653a2063616c6c6572206973206e6f7420746865206f776e6572600082015250565b60006123f1602083611853565b91506123fc826123bb565b602082019050919050565b60006020820190508181036000830152612420816123e4565b905091905056fea2646970667358221220fcb8d22b3412b1ba0e661025c29485f52c93c019b9fa3cf1557a39dbe4eba5cd64736f6c634300080f0033",
  "immutableReferences": {},
  "source": "// SPDX-License-Identifier: MIT\n\npragma solidity 0.8.15;\nimport \"../node_modules/@openzeppelin/contracts/access/Ownable.sol\";\n\n/**\n * @title Voting\n * @dev Voting project Alyra #3\n * @author BADET Gregory\n * @notice We use uint16 size to index propoesals, voters and sessions (limit 65 536)\n */\n\ncontract Voting is Ownable {\n\n    uint public winningProposalID;\n    \n    /**\n    * @dev Structure of Voter\n    */\n    struct Voter {\n        bool isRegistered;\n        bool hasVoted;\n        uint votedProposalId;\n    }\n\n    /**\n    * @dev Structure of Proposal\n    */\n    struct Proposal {\n        string description;\n        uint voteCount;\n    }\n\n    /**\n    * @dev WorkflowStatus\n    */\n    enum  WorkflowStatus {\n        RegisteringVoters,\n        ProposalsRegistrationStarted,\n        ProposalsRegistrationEnded,\n        VotingSessionStarted,\n        VotingSessionEnded,\n        VotesTallied\n    }\n\n    WorkflowStatus public workflowStatus;\n    Proposal[] proposalsArray;\n    mapping (address => Voter) voters;\n\n\n    event VoterRegistered(address voterAddress); \n    event WorkflowStatusChange(WorkflowStatus previousStatus, WorkflowStatus newStatus);\n    event ProposalRegistered(uint proposalId);\n    event Voted (address voter, uint proposalId);\n\n    event WinnerIs (uint proposalId);\n\n    modifier onlyVoters() {\n        require(voters[msg.sender].isRegistered, \"You're not a voter\");\n        _;\n    }\n\n\n    /**\n    * @dev Get data of a voter\n    * @param _addr address of voter\n    */\n    function getVoter(address _addr) external onlyVoters view returns (Voter memory) {\n        return voters[_addr];\n    }\n    \n\n    /**\n    * @dev Get data of a proposal\n    * @param _id id of proposal\n    */\n    function getOneProposal(uint _id) external onlyVoters view returns (Proposal memory) {\n        return proposalsArray[_id];\n    }\n\n \n    /**\n    * @dev Add a voter\n    * @param _addr address of new voter\n    */\n    function addVoter(address _addr) external onlyOwner {\n        require(workflowStatus == WorkflowStatus.RegisteringVoters, 'Voters registration is not open yet');\n        require(voters[_addr].isRegistered != true, 'Already registered');\n    \n        voters[_addr].isRegistered = true;\n        emit VoterRegistered(_addr);\n    }\n \n\n    /**\n    * @dev Add a proposal\n    * @param _desc text of proposal\n    */\n    function addProposal(string memory _desc) external onlyVoters {\n        require(workflowStatus == WorkflowStatus.ProposalsRegistrationStarted, 'Proposals are not allowed yet');\n        require(keccak256(abi.encode(_desc)) != keccak256(abi.encode(\"\")), 'Vous ne pouvez pas ne rien proposer'); // facultatif\n        // voir que desc est different des autres\n\n        Proposal memory proposal;\n        proposal.description = _desc;\n        proposalsArray.push(proposal);\n        emit ProposalRegistered(proposalsArray.length-1);\n    }\n\n\n    /**\n    * @dev Set a vote\n    * @param _id id of proposal to vote\n    */\n    function setVote( uint _id) external onlyVoters {\n        require(workflowStatus == WorkflowStatus.VotingSessionStarted, 'Voting session havent started yet');\n        require(voters[msg.sender].hasVoted != true, 'You have already voted');\n        require(_id < proposalsArray.length, 'Proposal not found'); // pas oblig, et pas besoin du >0 car uint\n\n        voters[msg.sender].votedProposalId = _id;\n        voters[msg.sender].hasVoted = true;\n        proposalsArray[_id].voteCount++;\n\n        emit Voted(msg.sender, _id);\n    }\n\n\n    /**\n    * @dev Change status to startProposalsRegistering\n    */ \n    function startProposalsRegistering() external onlyOwner {\n        require(workflowStatus == WorkflowStatus.RegisteringVoters, 'Registering proposals cant be started now');\n        workflowStatus = WorkflowStatus.ProposalsRegistrationStarted;\n        emit WorkflowStatusChange(WorkflowStatus.RegisteringVoters, WorkflowStatus.ProposalsRegistrationStarted);\n    }\n\n\n    /**\n    * @dev Change status to endProposalsRegistering\n    */ \n    function endProposalsRegistering() external onlyOwner {\n        require(workflowStatus == WorkflowStatus.ProposalsRegistrationStarted, 'Registering proposals havent started yet');\n        workflowStatus = WorkflowStatus.ProposalsRegistrationEnded;\n        emit WorkflowStatusChange(WorkflowStatus.ProposalsRegistrationStarted, WorkflowStatus.ProposalsRegistrationEnded);\n    }\n\n\n    /**\n    * @dev Change status to startVotingSession\n    */ \n    function startVotingSession() external onlyOwner {\n        require(workflowStatus == WorkflowStatus.ProposalsRegistrationEnded, 'Registering proposals phase is not finished');\n        workflowStatus = WorkflowStatus.VotingSessionStarted;\n        emit WorkflowStatusChange(WorkflowStatus.ProposalsRegistrationEnded, WorkflowStatus.VotingSessionStarted);\n    }\n\n\n    /**\n    * @dev Change status to endVotingSession\n    */ \n    function endVotingSession() external onlyOwner {\n        require(workflowStatus == WorkflowStatus.VotingSessionStarted, 'Voting session havent started yet');\n        workflowStatus = WorkflowStatus.VotingSessionEnded;\n        emit WorkflowStatusChange(WorkflowStatus.VotingSessionStarted, WorkflowStatus.VotingSessionEnded);\n    }\n\n\n    /**\n    * @dev Change status to tallyVotes and extract winner\n    */ \n    function tallyVotes() external onlyOwner {\n       require(workflowStatus == WorkflowStatus.VotingSessionEnded, \"Current status is not voting session ended\");\n       uint _winningProposalId;\n      for (uint256 p = 0; p < proposalsArray.length; p++) {\n           if (proposalsArray[p].voteCount > proposalsArray[_winningProposalId].voteCount) {\n               _winningProposalId = p;\n          }\n       }\n       winningProposalID = _winningProposalId;\n       emit WinnerIs(winningProposalID);\n       \n       workflowStatus = WorkflowStatus.VotesTallied;\n       emit WorkflowStatusChange(WorkflowStatus.VotingSessionEnded, WorkflowStatus.VotesTallied);\n    }\n}",
  "sourcePath": "/home/elgrego/dev/dapp_voting/truffle/contracts/Voting.sol",
  "compiler": {
    "name": "solc",
    "version": "0.8.15+commit.e14f2714.Emscripten.clang"
  },
  "schemaVersion": "3.4.7",
  "updatedAt": "2022-07-19T09:16:36.175Z",
  "networkType": "ethereum",
  "devdoc": {
    "author": "BADET Gregory",
    "details": "Voting project Alyra #3",
    "kind": "dev",
    "methods": {
      "addProposal(string)": {
        "details": "Add a proposal",
        "params": {
          "_desc": "text of proposal"
        }
      },
      "addVoter(address)": {
        "details": "Add a voter",
        "params": {
          "_addr": "address of new voter"
        }
      },
      "endProposalsRegistering()": {
        "details": "Change status to endProposalsRegistering"
      },
      "endVotingSession()": {
        "details": "Change status to endVotingSession"
      },
      "getOneProposal(uint256)": {
        "details": "Get data of a proposal",
        "params": {
          "_id": "id of proposal"
        }
      },
      "getVoter(address)": {
        "details": "Get data of a voter",
        "params": {
          "_addr": "address of voter"
        }
      },
      "owner()": {
        "details": "Returns the address of the current owner."
      },
      "renounceOwnership()": {
        "details": "Leaves the contract without owner. It will not be possible to call `onlyOwner` functions anymore. Can only be called by the current owner. NOTE: Renouncing ownership will leave the contract without an owner, thereby removing any functionality that is only available to the owner."
      },
      "setVote(uint256)": {
        "details": "Set a vote",
        "params": {
          "_id": "id of proposal to vote"
        }
      },
      "startProposalsRegistering()": {
        "details": "Change status to startProposalsRegistering"
      },
      "startVotingSession()": {
        "details": "Change status to startVotingSession"
      },
      "tallyVotes()": {
        "details": "Change status to tallyVotes and extract winner"
      },
      "transferOwnership(address)": {
        "details": "Transfers ownership of the contract to a new account (`newOwner`). Can only be called by the current owner."
      }
    },
    "title": "Voting",
    "version": 1
  },
  "userdoc": {
    "kind": "user",
    "methods": {},
    "notice": "We use uint16 size to index propoesals, voters and sessions (limit 65 536)",
    "version": 1
  }
}